:020000040800F2
:10000000F0FF012015020008A1020008A10200086B
:10001000A1020008A1020008A102000800000000DF
:10002000000000000000000000000000A102000825
:10003000A102000800000000A10200084515000808
:10004000A1020008A1020008A1020008A102000804
:10005000A1020008A1020008A1020008A1020008F4
:10006000A1020008A1020008A1020008A1020008E4
:10007000A1020008A1020008A1020008A1020008D4
:10008000A1020008A1020008A1020008A1020008C4
:10009000A1020008A1020008A1020008A1020008B4
:1000A000A1020008A1020008A1020008A1020008A4
:1000B000A1020008A1020008A1020008A102000894
:1000C000A1020008A1020008A1020008A102000884
:1000D000A1020008A1020008A1020008A102000874
:1000E000A1020008A1020008A1020008A102000864
:1000F000A1020008A1020008A1020008A102000854
:10010000A1020008A1020008A1020008A102000843
:10011000A1020008A1020008A1020008A102000833
:10012000A1020008A1020008A1020008A102000823
:10013000A10200080000000000000000A102000869
:10014000A1020008A1020008A1020008A102000803
:10015000A1020008A1020008A1020008A1020008F3
:10016000A1020008A1020008A1020008A1020008E3
:10017000A1020008A1020008000000000000000029
:08018000A1020008A102000821
:100188000348044B834202D0034B03B1184770471E
:100198003C0000203C000020000000000548064B01
:1001A8001B1AD90F01EBA301491002D0034B03B16D
:1001B800184770473C0000203C0000200000000069
:1001C80010B5064C237843B9FFF7DAFF044B13B197
:1001D8000448AFF300800123237010BD3C000020C9
:1001E800000000007425000808B5054B1BB105493F
:1001F8000548AFF30080BDE80840FFF7CFBF00BF58
:10020800000000004000002074250008DFF85CD0E2
:1002180017480168174A91420ED100230360164817
:100228004FF48041016015484FF001010160144806
:1002380003689D4640680047002103E0114B5B5866
:10024800435004311048114B42189A42F6D3104AD1
:1002580002E0002342F8043B0E4B9A42F9D301F026
:1002680041F802F05FF901F0C9F87047F0FF01208A
:10027800F0FF0120EFBEADDE4438024000380140F7
:100288000000FF1F94260008000000203C0000200A
:100298003C000020D8040020FEE7000008B5074B0A
:1002A800D3F8F02F064B9A4203D000F067F80120EC
:1002B80008BD0020014BC3F8F00FF9E700F001205A
:1002C800AD1007B008B5642000F02AF808BD08B5DD
:1002D80000F02CF808BD00000D4A1368526803F1BD
:1002E8006043B3F5003F0AD812F0010F09D0084B5C
:1002F8009A4208D3074B9A4207D80120704700203A
:10030800704700207047002070470020704700BFEA
:1003180000400008FFFF05080120704770470000F3
:10032800014B1880704700BF6000002008B502F03C
:10033800E9F80E4B1B68984210D30D4B1B7873B924
:100348000B4B01221A700B4B4FF400329A6102F0EA
:10035800D9F8094B1B880344044A136008BD044BB1
:1003680000221A70034B02229A61F0E75C00002019
:10037800580000200008024060000020014B0222C3
:100388009A6170470008024010B50A4B0A4A1A627F
:1003980000241C62094A5A625C62094A1A611C619B
:1003A80081225A615C6103229A619C6101F098F88C
:1003B800204610BD00380240FFC9FF3F3379C7000F
:1003C800FF10602010B504460E4B1A784FF47A736C
:1003D800B3FBF2F30C4A1068B0FBF3F000F038FB03
:1003E80068B90F2C01D901200AE0002221464FF0FC
:1003F800FF3000F01DFB054B1C60002000E00120D1
:1004080010BD00BF000000202800002004000020CC
:1004180008B50B4B1A6842F400721A601A6842F465
:1004280080621A601A6842F480721A60032000F031
:10043800EDFA0020FFF7C6FF00F0E8FF002008BD36
:10044800003C02407047002800F0A18038B50446FF
:1004580090F82030D3B12268136843F00103136089
:1004680002F058F8054623685A6812F0010F10D1B7
:1004780002F050F8401B0A28F5D9636A43F40033A8
:100488006362052384F82030012038BDFFF7DAFFC6
:10049800E1E71A6822F002021A6002F03BF805460A
:1004A80023685A6812F0020F0DD002F033F8401B8F
:1004B8000A28F5D9636A43F400336362052384F894
:1004C80020300120E1E7227E012A3DD01A6822F07F
:1004D80080021A60637E012B3BD02268136823F0E8
:1004E80040031360A37E012B39D02268136823F0E0
:1004F80020031360E37E012B37D02268136843F092
:1005080010031360237F012B35D02268136823F072
:1005180008031360637F012B33D02268136823F02C
:1005280004031360A368E2681343226913436269F2
:1005380013436268013A21681343CB61002060626B
:10054800012384F82030A0E71A6842F080021A607C
:10055800C0E72268136843F040031360C2E72268CB
:10056800136843F020031360C4E72268136823F07C
:1005780010031360C6E72268136843F0080313608A
:10058800C8E72268136843F004031360CAE7012030
:100598007047000090F82030013BDBB2012B05D9F1
:1005A800436A43F4802343620120704730B5464BC9
:1005B800D3F8002242F00102C3F80022D3F8002247
:1005C80022F47C52C3F80022D3F80022486A42EA97
:1005D8000022C3F800224A6902F01F02012000FA33
:1005E80002F2D3F81C026FEA020C20EA0200C3F8F8
:1005F8001C02CB69C3B9344BD3F80C020CEA0000D7
:10060800C3F80C028C884869CD6844EA0544483030
:1006180043F830408C68088840EA04404C6904F18B
:10062800480E03EBCE035860CB69012B1ED08B69B3
:10063800002B33D12448D0F804320CEA0303C0F865
:1006480004320B698BBB2048D0F814320CEA030340
:10065800C0F814320B6A012B2ED01B4AD2F8003294
:1006680023F00103C2F80032002030BD164BD3F846
:100678000C021043C3F80C028C8848690D6844EAE0
:100688000544483043F8304088894C698D6840EA11
:100698000540483403EBC4035860C8E70A48D0F85B
:1006A80004321343C0F80432CBE70748D0F81432B9
:1006B8001343C0F81432CDE70349D1F81C32134371
:1006C800C1F81C32C9E700BF0064004070B5044699
:1006D80090F82050EDB2012D06D0436A43F4002370
:1006E80043620125284670BD022380F82030026845
:1006F800136823F00103136001F00CFF064623681A
:100708005B6813F0010F0CD001F004FF831B0A2B68
:10071800F5D9636A43F400336362052384F8203013
:10072800E0E700256562DDE730B590F820C0046891
:10073800A4680CF1FF3C5FFA8CFCBCF1010F62D895
:1007480014F0E05F59D0C4F3016C012404FA0CF4EE
:100758001C608B68002B3DD10D68CB68046843EAA8
:1007680045550CF118031B01E55003680C690CF1A1
:10077800180E03EB0E135C600B7D012B35D0D1797D
:1007880093791B0443EA0163517943EA01231479FD
:100798000168234301EB0C11C1F88C31D1789378AF
:1007A8001B0443EA0163517843EA01231178026884
:1007B8000B4302EB0C12C2F8883102680CF1180CDA
:1007C8004FEA0C1C52F80C3043F0010342F80C308D
:1007D80000201DE04C6843EAC403CC6823430CF1B5
:1007E8001804240105682B51BFE7036803EB0E13B7
:1007F800596841F480715960C1E7436A43F40013B2
:100808004362012004E0436A43F4802343620120E9
:1008180030BD90F82030013BDBB2012B01D900201C
:10082800704703689B6803EA8163B3EB816F01D06B
:10083800012070470020704790F820C00CF1FF3C61
:100848005FFA8CFCBCF1010F00F2A58030B451B9FD
:100858000468E46814F0030F10D1436A43F40013EA
:10086800436201207EE00468246914F0030F05D177
:10087800436A43F400134362012073E0056801F101
:100888001B0424012C5904F004049460002C6BD13F
:10089800056801F11B0424012C59640D14600468D7
:1008A80001F11B0C4FEA0C1C54F80C4004F0020434
:1008B800D4600468A444DCF8045015F0080F5BD039
:1008C80008241461046801F11B0C04EB0C1464681F
:1008D800C4F307249461046804EB0C146468240CC2
:1008E8005461026802EB0112D2F8B8211A7002684A
:1008F80002EB0112D2F8B821C2F307225A7002683B
:1009080002EB0112D2F8B821C2F307429A700268CA
:1009180002EB0112D2F8B821120EDA70026802EB6B
:100928000112D2F8BC211A71026802EB0112D2F846
:10093800BC21C2F307225A71026802EB0112D2F8F5
:10094800BC21C2F307429A71026802EB0112D2F885
:10095800BC21120EDA71C1B90268D36843F02003D2
:10096800D360002030BC7047056801F11B042401E6
:100978002C59E408546092E701F11B0504EB0514B7
:10098800646804F00F0414619CE70268136943F07B
:1009980020031361E5E7436A43F48023436201209F
:1009A80070470000002808DB0901C9B200F1604067
:1009B80000F5614080F80013704700F00F0009014E
:1009C800C9B2014B1954704714ED00E000B500F0AE
:1009D8000700C0F1070CBCF1040F28BF4FF0040C4E
:1009E800031D062B0FD9C31E4FF0FF3E0EFA0CF065
:1009F80021EA000199400EFA03FE22EA0E0241EABA
:100A080002005DF804FB0023EEE70000074AD36804
:100A180023F4E0631B041B0C000200F4E0600343B2
:100A280043F0BF6343F40033D360704700ED00E048
:100A380010B50446054BD868C0F30220FFF7C6FF7F
:100A480001462046FFF7AEFF10BD00BF00ED00E0F5
:100A58000138B0F1807F0BD24FF0E0235861054A8E
:100A6800F02182F823100020986107221A6170474C
:100A78000120704700ED00E010B40A490C6924F425
:100A880040740C610C6944F440740C610C6944F0C6
:100A980001040C610260BFF36F8F43605DF8044B83
:100AA800704700BF003C0240074B1A6922F44072AD
:100AB8001A611A6942F400721A611A6942F0010255
:100AC8001A610160704700BF003C0240074B1A6979
:100AD80022F440721A611A6942F480721A611A6922
:100AE80042F001021A610180704700BF003C0240D9
:100AF800064B1A6922F440721A611A691A611A6956
:100B080042F001021A610170704700BF003C0240C8
:100B1800274BDB6813F0100F07D0264AD36943F040
:100B28001003D361224B1022DA60214BDB6813F0EB
:100B3800200F07D01F4AD36943F00803D3611C4B29
:100B48002022DA601A4BDB6813F0400F07D0194AED
:100B5800D36943F00403D361154B4022DA60144B88
:100B6800DB6813F0800F07D0124AD36943F0020301
:100B7800D3610F4B8022DA600D4BDB6813F4807F62
:100B880008D00C4AD36943F00103D361084B4FF4F2
:100B98008072DA60064BDB6813F0020F07D0054A53
:100BA800D36943F02003D361014B0222DA60704716
:100BB800003C024008000020094B1B69002B01DBA8
:100BC80000207047064B074A5A6002F188325A6083
:100BD8001B69002B01DB002070470120704700BF14
:100BE800003C024023016745034A136943F0004370
:100BF80013610020704700BF003C024038B504462E
:100C0800144B0022DA6101F085FC0546124BDB68C3
:100C180013F4803F0AD0B4F1FF3FF7D024B101F0BC
:100C280079FC401BA042F1D903200DE00A4BDB6898
:100C380013F0010F02D0084B0122DA60064BDB6883
:100C480013F4F97F01D1002038BDFFF761FF0120BF
:100C5800FAE700BF08000020003C0240F8B516463D
:100C68001B4A127E012A30D004460D461F46184BF7
:100C780001221A764CF25030FFF7C0FF90B9ACB1A0
:100C8800012C18D0022C1BD032463B462846FFF7D1
:100C9800F3FE4CF25030FFF7B1FF0E4A136923F010
:100CA800010313610A4B00221A76F8BDF1B22846F7
:100CB800FFF71EFFEDE7B1B22846FFF707FFE8E7A9
:100CC80031462846FFF7F0FEE3E70220EDE700BFD4
:100CD80008000020003C0240074B1A6922F44072C9
:100CE8001A611A6942F004021A611A6942EA00227A
:100CF80042F480321A617047003C0240012905D055
:100D0800022906D039B14FF4407104E04FF48071E4
:100D180001E04FF400710B4B1A6922F440721A611A
:100D28001A690A431A611A6922F0F8021A611A69E3
:100D380042EAC00040F0020018611A6942F48032A9
:100D48001A617047003C0240164B1B6813F4007F81
:100D580010D0144B1A6822F400721A601A6842F410
:100D680000621A601A6822F400621A601A6842F473
:100D780000721A600B4B1B6813F4806F10D0094B7C
:100D88001A6822F480621A601A6842F480521A6063
:100D98001A6822F480521A601A6842F480621A6053
:100DA800704700BF003C0240F8B5224B1B7E012B68
:100DB8003ED004460E461F4B01221A764CF25030A4
:100DC800FFF71CFF074670BB4FF0FF333360236803
:100DD800012B16D0A568E368A2681344AB4220D95A
:100DE800217C2846FFF78AFF4CF25030FFF706FFB8
:100DF800114A136923F0FA031361074680B90135D4
:100E0800E9E76168207CFFF767FF4CF25030FFF795
:100E1800F5FE0746084A136923F00403136100E04E
:100E28003560FFF791FF034B00221A763846F8BD6C
:100E38000227FBE708000020003C024010B40468C9
:100E480091FAA1F3A3B1B3FA83F35B004FF0030C5B
:100E58000CFA03F324EA030391FAA1F151B1B1FAB0
:100E680081F149008A40134303605DF8044B7047E1
:100E78002023EAE72021F4E710B4846891FAA1F36B
:100E8800A3B1B3FA83F35B004FF0030C0CFA03F33E
:100E980024EA030391FAA1F151B1B1FA81F14900B1
:100EA8008A40134383605DF8044B70472023EAE7C8
:100EB8002021F4E710B4C46891FAA1F3A3B1B3FAFE
:100EC80083F35B004FF0030C0CFA03F324EA0303EB
:100ED80091FAA1F151B1B1FA81F149008A40134365
:100EE800C3605DF8044B70472023EAE72021F4E74C
:100EF80010B4046A91FAA1F3A3B1B3FA83F39B0087
:100F08004FF00F0C0CFA03F324EA030391FAA1F152
:100F180051B1B1FA81F189008A40134303625DF847
:100F2800044B70472023EAE72021F4E710B4446A11
:100F3800090A91FAA1F3A3B1B3FA83F39B004FF026
:100F48000F0C0CFA03F324EA030491FAA1F151B14E
:100F5800B1FA81F189008A40144344625DF8044B78
:100F680070472023EAE72021F4E700003C4B984231
:100F780016D03C4B98421FD03B4B984228D03B4B55
:100F8800984231D03A4B98423AD03A4B984243D0A3
:100F9800394B98424CD0394B984255D00120704774
:100FA80003F560531A6942F001021A611A6922F0C6
:100FB80001021A610020704703F550531A6942F084
:100FC80002021A611A6922F002021A6100207047AF
:100FD80003F540531A6942F004021A611A6922F0B3
:100FE80004021A610020704703F530531A6942F071
:100FF80008021A611A6922F008021A610020704773
:1010080003F520531A6942F010021A611A6922F096
:1010180010021A610020704703F510531A6942F054
:1010280020021A611A6922F020021A610020704712
:1010380003F500531A6942F040021A611A6922F056
:1010480040021A610020704703F5E0531A6942F024
:1010580080021A611A6922F080021A610020704722
:10106800000002400004024000080240000C024058
:10107800001002400014024000180240001C024008
:10108800F8B507460E460D6895FAA5F515B1B5FAF7
:1010980085F51AE0202518E0B26821463846FFF7A2
:1010A800EBFEF2687B6823EA040304FB02F21343B5
:1010B8007B6016E0726921463846FFF737FF726891
:1010C80021463846FFF7BAFE0135346834FA05F28E
:1010D8001DD00122AA401440F6D07368013B012BB1
:1010E800DAD9326921463846FFF7E4FE7368022BE5
:1010F800E5D194FAA4F3002BDCD0B3FA83F3072BE1
:10110800D8D8726921463846FFF7F2FED7E70020A3
:10111800F8BD000082B02B4A136843F00103136046
:10112800284B1B6813F0020FFAD0264B00229A6056
:101138001A680192019A22F0867222F48032019292
:10114800019A22F080520192019A22F08062019263
:10115800019A1A601A6822F0F80242F080021A60B6
:10116800184B1B6813F0007FFAD1164B164A5A60C9
:10117800C3F8842002F16042C3F88820DA6822F4B8
:10118800F852DA60DA6822F40052DA60DA6822F497
:101198008042DA60DA6842F41F02DA60DA6842F400
:1011A8000012DA60DA6842F48002DA605A6F22F0DC
:1011B80001025A675A6F42F080725A67002002B0E3
:1011C800704700BF0038024010300024034B9B6872
:1011D800C3F30313024AD35CD84070470038024077
:1011E80094250008034B9B68C3F38223024AD35C0F
:1011F800D8407047003802408C250008034B9B6894
:10120800C3F34233024AD35CD840704700380240E7
:101218008C250008164B5B6803F480039BB9154BBB
:10122800082812D0124A516801F03F01B3FBF1F0CF
:101238005368C3F3881303FB00F05368C3F30273C6
:10124800B0FBF3F070470C4BEAE7094A516801F02C
:101258003F01B3FBF1F05368C3F3881303FB00F0BD
:101268005368C3F3014301335B00B0FBF3F07047ED
:10127800003802400024F40000127A0008B50B4B35
:101288009B6803F00C03082B05D00C2B07D0042B0C
:1012980009D1074802E00820FFF7BCFF08BD0C2071
:1012A800FFF7B8FFFAE70348F8E700BF0038024045
:1012B80000127A000024F40010B50446FFF7DEFFA0
:1012C8002060FFF783FF6060FFF78CFFA060606815
:1012D800FFF794FFE06010BD014B1860704700BF36
:1012E80028000020054BD3F8882042F47002C3F888
:1012F80088204FF000629A60704700BF00ED00E060
:1013080070B40A4C66680A4D3540084340EA8210BA
:1013180005436560626822F440321A43626062687D
:1013280022F0E0421343636070BC7047003802400B
:101338000080BFFF08B5294A136823F00F0343F064
:1013480004031360136803F00F03042B41D1244AEC
:10135800136843F44043136002F5E432136843F41E
:10136800803313601F4B1B6813F4003FFAD000232F
:10137800B42205214FF48000FFF7C2FF194A136811
:1013880043F080731360174B1B6813F0007FFAD08B
:10139800144B9A6822F0F0029A609A6822F4E0529C
:1013A80042F4A0529A609A6822F4604242F42042C1
:1013B8009A609A6822F0030242F002029A60094B8E
:1013C8009B6803F00C03082BF9D10748FFF784FF4B
:1013D80008BD6E21054800F0B2F8B8E7003C0240AD
:1013E800007000400038024000449508A425000819
:1013F80008B5FFF70DF8FFF79DFF08BD08B5FFF723
:10140800F7FF00F0E3F800F0F5F8FCE7F0B58DB071
:10141800304B5A6C42F480425A645A6C02F480424F
:101428000592059A1A6C42F080521A641A6C02F0FE
:1014380080520492049A1A6B42F001021A631A6BE2
:1014480002F001020392039A1A6B42F002021A6335
:101458001A6B02F002020292029A1A6B42F004021C
:101468001A631A6B02F004020192019A1A6C42F094
:1014780000721A641B6C03F000730093009B4FF416
:1014880080530693012707970024089409940A9427
:10149800114D06A92846FFF7F3FD4FF08053AB61C5
:1014A800022606960797089409940A9406A92846DE
:1014B800FFF7E6FD4FF4407306930796032308935E
:1014C80009940A9409230B9306A90448FFF7D8FD49
:1014D8000DB0F0BD00380240000802400004024090
:1014E80008B5FFF717FE1148FFF740FD1048FFF752
:1014F8003DFD1048FFF73AFD0F4B1A6C22F00072C1
:101508001A641A6B22F004021A631A6B22F00202A0
:101518001A631A6B22F001021A631A6C22F08052C5
:101528001A645A6C22F480425A6408BD00080240CA
:10153800000402400000024000380240704708B52D
:1015480000F012F9FCE7000008B500F0B9F801282E
:1015580004D00D4B1B78012B04D008BD0A4B002288
:101568001A70FAE700F0CEFF084B1B68084A1268A9
:10157800134403F5FA739842EFD3034B00221A7011
:1015880000F02AFDE9E700BF6C000020640000209D
:101598006800002008B5054B1B78012B00D008BD5A
:1015A80000F0B0FF024B1860F9E700BF6C000020A4
:1015B8006800002008B5044B01221A70FFF7EAFF03
:1015C800FFF7C2FF08BD00BF6C00002008B500F09F
:1015D800FFFC00F0C5F800F00DFF00F0C9F800F0BE
:1015E800EDFE00F021F80021084600F0CFF8FFF7E3
:1015F800E1FF08BD08B500F0B7F800F05BFF00F0A8
:1016080087F8FFF7A1FF08BD08B500F07BFF014B85
:10161800186008BD7800002008B5024B1870FFF765
:10162800F3FF08BD7C00002008B50020FFF7F4FF99
:1016380000F064FA00F002FC014B02221A7008BDA7
:101648002C00002008B50020FFF7E6FF08BD0000C9
:1016580008B5064B1B78022B04D000F063FAFFF79D
:10166800D3FF08BDC9B200F05BFCF6E72C000020F0
:10167800084B1B78052B0AD8DFE803F0030309059C
:101688000703812070473F2070473F20704708209C
:10169800704700BF2C000020084B1B78052B0AD888
:1016A800DFE803F0030309050703812070473F20A3
:1016B80070473F2070470820704700BF2C0000206B
:1016C80008B500F027FA00B1012008BD10B5FFF7F2
:1016D800F7FF012802D00024204610BD0A4B1C78D1
:1016E800012C01D00024F7E700F00CFF074B1B6822
:1016F800C01A41F28733984201D80024ECE7002051
:10170800FFF78AFFE8E700BF7C0000207800002090
:1017180000B583B00DF107010F4800F031FC012836
:1017280006D0FFF7D3FF01280DD003B05DF804FB06
:101738000A4B02221A70FFF76FFF9DF80710064840
:1017480000F090FAEDE702238DF8043001A9052096
:1017580000F01CF8E9E700BF700000202C00002012
:1017680008B5FEF7AFFD08BD08B5FEF7B0FD08BD2A
:101778000023034A1360034A1360034A1370704737
:1017880084000020800000207D00002038B5044639
:101798000D46C31E042B20D8DFE803F0323A472653
:1017A800030071B1234B1A6882B1234B19688A422E
:1017B80018D35308642000FB0133B3FBF2F3DBB208
:1017C80005E058211D48FFF7BAFEEBE700232B720E
:1017D8006968194A13680B44136029462046FEF7C6
:1017E8009DFD38BD0023F2E729B16968114A1368E5
:1017F8000B441360F1E767211048FFF7A0FEF4E7F8
:1018080000230C4A13600C4A13600D4A1370E4E776
:101818000B4B1B78012BE4D0074B1B68054A126859
:101828009342DED1002BDCD0D7E7054B01221A709A
:10183800D3E700BF8400002080000020AC2500080A
:101848007D000020014B00225A727047880000205A
:1018580010B5054C00232372FFF7F4FFFF23237014
:101868000123A38110BD00BF88000020064BFF2282
:101878001A7000225A70597A9970DA701A715A716E
:1018880006229A81704700BF8800002070B506467E
:10189800FFF7D8FF0E4C0125257273782375FF23B7
:1018A80023700023637010226270A370FFF7E0FEBC
:1018B800E070FFF7F1FE2071FFF7EEFEC0F307209E
:1018C8006071A571E5710823A38100F077FD70BDF3
:1018D80088000020F8B505461746002406E015F8EC
:1018E800013B1C44E4B2FFF73FFF31464E1E00297E
:1018F800F5D13C600120F8BD30B583B00C4CFF2316
:10190800237000256570A570FFF7B2FEE0702571A1
:101918006571A5710723A3818DF800500195237D7A
:101928008DF8013069460320FFF730FF03B030BD62
:101938008800002010B582B00C46F12812D003238D
:101948008DF80430312C10D0252C1CD001A905208D
:10195800FFF71CFF0E4BFE221A705C7002229A8160
:1019680002B010BD2029EAD1F4E7D12807D0D02849
:1019780001D0C928EAD101238DF80430E6E7002315
:101988008DF80430E2E704238DF80430DEE700BF69
:101998008800002038B50446FFF76AFE6278904256
:1019A8000ED90A4D2969681C00F042FBFF232B70F1
:1019B8002B69627813442B6163780133AB8138BD9E
:1019C80022212078FFF7B6FFF9E700BF8800002042
:1019D80008B500210078FFF7ADFF08BD08B5312133
:1019E8000078FFF7A7FF08BD08B520210078FFF7AA
:1019F800A1FF08BD70B584B00546134B1E69FFF7FB
:101A080037FE441E0196029400238DF80C3001A97C
:101A18000720FFF7BBFE6A1C2146304600F0D2FCC7
:101A280060B1094CFF232370FFF722FE23690138B8
:101A3800034423610123A38104B070BD31212878B8
:101A4800FFF778FFF8E700BF8800002070B584B082
:101A58000446FFF70DFE0138637898421EDD1B4BE4
:101A6800FF221A7001229A816578E5B1174B1E6929
:101A78000196029500238DF80C3001A90720FFF785
:101A880085FEA21C2946304600F09CFCC0B10F4AD6
:101A9800136961780B44136104B070BD222120786A
:101AA800FFF748FFF8E700F09DFC20B931212078C6
:101AB800FFF740FFF0E700210420FFF767FEEBE7A0
:101AC80031212078FFF736FFE6E700BF88000020C5
:101AD80010B500F081FA054C00232372FFF7B2FE1F
:101AE800FF2323700123A38110BD00BF88000020BD
:101AF80008B589B2FFF7ACFD08BD0000044B002211
:101B08001A721A61DA729A819A725A72704700BF11
:101B180088000020024B187A00B10120704700BFEE
:101B280088000020014B0022DA72704788000020EC
:101B38000378427843EA0223827843EA0243C07872
:101B480043EA00607047000038B50446FFF790FD8F
:101B58006378984213D9201DFFF7EAFF01460A4D22
:101B680028616278681C00F063FAFF232B702B69E8
:101B7800627813442B6163780133AB8138BD22212D
:101B88002078FFF7D7FEF9E78800002010B5054C4C
:101B9800FF2323700430FFF7CBFF20610123A381CB
:101BA80010BD00BF8800002070B582B005460E4BFE
:101BB8001E690430FFF7BCFF044600960190694691
:101BC8000620FFF7E3FD2146304600F0FFFB30B169
:101BD800054BFF221A7001229A8102B070BD312193
:101BE8002878FFF7A7FEF8E7880000200870C0F300
:101BF80007234B70C0F307438B70000EC870704703
:101C080030B583B0002501950A4CFF2323700430BA
:101C1800FFF78EFF014601AA2069FFF75BFE60709F
:101C2800211D0198FFF7E2FFA570E5700823A38145
:101C380003B030BD8800002010B5084CFF23237086
:101C4800074B236100236370A370E370211D0720F5
:101C5800FFF7CCFF0823A38110BD00BF8800002038
:101C68000426000810B504460078FF2824D03E4B0F
:101C78001B7A012B2CD1A0F1C903352B65D8DFE8DD
:101C880003F04864645C6464584C5450646464644D
:101C980064646464646464646464646464646464FC
:101CA800646464646464646464646064342C2830C8
:101CB80064646438643C40442046FFF7E7FD2A4BDF
:101CC800DB7A012B45D0284BB3F90C10002945DCF1
:101CD80010BD2046FFF75EFEF1E72046FFF734FF10
:101CE800EDE72046FFF752FFE9E72046FFF788FFB8
:101CF800E5E72046FFF7A0FFE1E72046FFF768FE8B
:101D0800DDE72046FFF7B2FDD9E72046FFF7A0FD43
:101D1800D5E72046FFF76EFED1E72046FFF796FE8F
:101D2800CDE72046FFF7E8FDC9E72046FFF73CFF6F
:101D3800C5E72046FFF7CCFEC1E72046FFF74EFE79
:101D4800BDE72046FFF750FEB9E72021FFF7F2FD77
:101D5800B5E710212078FFF7EDFDB4E71846012319
:101D6800C372FFF7C5FEB3E7880000200E4BD3F817
:101D7800F02F0E4B9A4216D10B4AD2F8F43FD2F804
:101D8800F82F40F2F2718B4206D803F10C00084993
:101D980008600D3307490B60042A04D8064B53F832
:101DA8002220064B1A60704700F00120AD1007B0E2
:101DB80038000020340000200C26000830000020E5
:101DC8002DE9F04184B004460D461746984668460A
:101DD800FFF772FA0299174BA3FB01318909002317
:101DE80001E00133DBB2112B1FD8134A12F813009C
:101DF80002EB4302527800EB020C0CFB044CB1FBE3
:101E0800FCFE0CFB1E16002EEBD11FFA8EFCA5F86B
:101E180000C00CF1FF3C1FFA8CFCBCF5806FE0D2CF
:101E2800387088F80020012000E0002004B0BDE8E8
:101E3800F08100BFD34D62102026000810B58CB089
:101E48000023ADF82E308DF82D308DF82C30FFF7AB
:101E58008DFF2B4B1C682B4B18682B4BA3FB0030BA
:101E68000BAB0DF12D020DF12E01C0F38F10FFF712
:101E7800A7FF00283AD02548254B036000230376A6
:101E8800437683760122C276037743778360C36003
:101E98009DF82D30013B1B0403619DF82C30013B5C
:101EA8001B054361BDF82E304360FEF7CCFA002CC9
:101EB80021DB6405174B0022069207920121089145
:101EC800200C0190A4B20294180C03909BB20493C6
:101ED800059209910E230A930C4C01A92046FEF79E
:101EE80059FB2046FEF7F2FB0CB010BDEE210A4864
:101EF800FFF725FBBFE7E40044F00404074BDAE7EB
:101F08003800002030000020D34D6210A0000020CF
:101F1800006400400400E0FFC0250008FCFF1F002B
:101F280010B588B00246144B1B68002B0DDB0293DA
:101F38000023049300230593069101AB02A90F48DF
:101F4800FEF7F2FB38B108B010BD23F0004303934D
:101F580004230493EEE700F0D5FA00F13204019966
:101F68000648FEF756FC0028EDD0FFF7FDFB00F011
:101F7800C9FAA042F3D9E6E734000020A000002007
:101F880030B589B003460D460F4A146801AA0021EE
:101F98000E48FEF751FC98B9002C08DB019BA342C0
:101FA8000FD1039B6BB9059B2B70012009E024F02E
:101FB8000044029BA34204D1039B042B01D1F2E706
:101FC800002009B030BD00BF38000020A00000206C
:101FD80008B500F0A3FA08BD10B500F0FBF9D8B1B8
:101FE800FEF75CF9E8B1FFF72DFB00210120FFF7B0
:101FF800CDFBFEF7C9F900F041FA00F0EFF920F047
:10200800604020F07F00094B986000F0E7F94468D1
:1020180000F086FAA04710BD00210220FFF7B6FBAA
:10202800F9E700210220FFF7B1FBF4E700ED00E03B
:1020380070B50D46044606E015F8013B04F8013B6F
:10204800FFF792FB3246531E9EB2002AF4D170BDB0
:1020580038B50546002401E00134E4B2052C15D852
:10206800FFF782FB04EB4403094A52F82330AB42E2
:10207800F2D804EB440102EB810252681344AB42EC
:10208800EAD9034B03EB8103187A00E0FF2038BD3F
:102098004426000808B5C1F3080353B903688B4206
:1020A80009D040F8041B4FF40072FFF7C1FF01206C
:1020B80008BD0020FCE70120FAE72DE9F0410746BA
:1020C800FEF77AFD00247F2C15D83E6806EB8408BD
:1020D80007EB84035D68FFF747FB2A460023414668
:1020E8000220FEF7BBFD804640B956F82430AB42CB
:1020F80006D10134E7E74FF0010801E04FF000088E
:10210800FEF772FD4046BDE8F081000038B50D4687
:102118000C4B984211D004460B4B994207D1094CFD
:1021280029462046FFF7B6FF48B1204638BDFFF7DD
:10213800C4FF0028F4D10024F7E7044CF0E700249A
:10214800F3E700BFC800002000400008CC020020D0
:102158002DE9F04106460C4617461D4621F4FF7846
:1021680028F001080368B3F1FF3F07D033684345FF
:102178000AD13368E41A3444043414E04146FFF7C2
:1021880089FF0028F2D120E041463046FFF7BEFF24
:1021980006460028EDD1002017E017F8013B04F8A7
:1021A800013B013D10D0FFF7DFFA311D611AB1F58F
:1021B800007FF2D3316801F500713046FFF7A6FFC2
:1021C800064620B1041DE8E70120BDE8F0810020A3
:1021D800FBE700000023052B2FD803EB4301194A26
:1021E80002EB8102127A824202D00133DBB2F2E7BB
:1021F80070B5144A52F8215002EB8102566815F066
:10220800030F02D116F0030F04D04FF431710E48BA
:10221800FFF795F9002405E02B68B3F1FF3F0ED1D5
:1022280004350134B4EB960F05D214F0FF0FF3D147
:10223800FFF79AFAF0E7012070BD002070470020F0
:10224800FAE700BF44260008E0250008F0B587B08B
:1022580004460E4600230093884202D830B3012575
:1022680000E00025062E23D8012D22D1002301935A
:102278000223059301230493FEF79EFC01E0013439
:10228800E4B2B4420FD82046FFF7A4FF074600285F
:10229800F5D1FFF769FA0394694601A8FEF784FDB2
:1022A8000028ECD03D46FEF79FFC02E0054600E022
:1022B8000025284607B0F0BD4FF0FF33024A1360EF
:1022C800024A1360704700BFCC020020C8000020FB
:1022D80070B50D460139144B1B1A994201D90020DB
:1022E80070BD04461646FFF7B3FEFF2813D0281921
:1022F8000138FFF7ADFEFF280DD024F4FF7222F05D
:1023080001020A4B9A4208D02B4632462146084819
:10231800FFF71EFFE4E70020E2E72B46324621469E
:102328000448FFF715FFDBE7FFFF0508004000083A
:10233800CC020020C80000204A1E0E4B1B1A9A42ED
:1023480001D90020704770B505460C46FFF780FE9E
:1023580006462C44601EFFF77BFE0146FF2E05D083
:10236800FF2805D03046FFF771FF70BD0020FCE75D
:102378000020FAE7FFFF050808B50C4B1B68B3F10E
:10238800FF3F06D10A4B1B68B3F1FF3F07D101207D
:1023980008BD0648FFF791FE0028F3D1F8E7044886
:1023A800FFF78BFE0028F3D00120F1E7CC020020D4
:1023B800C8000020004870470040000808B5FFF733
:1023C8007BFF08BD08B5FFF783FF08BD08B5FFF719
:1023D800B3FF08BD08B5FDF77FFF08BD08B5FFF7D7
:1023E800E9FF08BD08B5FDF797FF00B908BDFFF77D
:1023F800C3FFFBE782B01A4B5A6C42F001025A64E1
:102408005A6C02F001020192019A164A1268996800
:10241800C1F342311448415CCA409B6813F4604FD1
:102428001BD1012302FB03F3104A012111604FF66F
:10243800FF71D1625B090E49A1FB0313DB09013B64
:102448009362536943F0010353610A4B00211960F9
:10245800526A094B1A8002B070470223E2E700BFB4
:1024680000380240280000208C25000800000140A8
:10247800C55A7C0AD4040020D00400200C4B5A6AA8
:1024880042F001025A625A6A22F001025A625A6CF8
:1024980022F001025A644FF0E02300221A615A61C7
:1024A8009A6103F550634FF000725A60704700BF9D
:1024B800003802400F4B5B6A9BB20F4A11885B1AC7
:1024C8009BB2632B15D910B40C4AA2FB03235A09FB
:1024D8000B4C206800EB5310206002EB820303EBE7
:1024E80083039A0092B21144034B19805DF8044BA0
:1024F8007047704700000140D00400201F85EB5151
:10250800D404002008B5FFF7D5FF014B186808BDB3
:10251800D404002008B5FFF7F5FF08BD72B6704770
:1025280062B6704770B50D4D0D4C641BA4100026A3
:10253800A64209D10B4D0C4C00F018F8641BA410EE
:102548000026A64205D170BD55F8043B98470136D0
:10255800EEE755F8043B98470136F2E78C26000869
:102568008C2600088C26000890260008F8B500BFC5
:10257800F8BC08BC9E467047F8B500BFF8BC08BC5C
:042588009E467047B4
:10258C000000000001020304000000000000000035
:10259C0001020304060708096D61696E2E630000D1
:1025AC002E2E2F536F757263652F6576656E74735F
:1025BC002E6300002E2E2F536F757263652F4152C0
:1025CC004D434D345F53544D333246342F63616E5B
:1025DC002E6300002E2E2F536F757263652F4152A0
:1025EC004D434D345F53544D333246342F666C613A
:1025FC0073682E63000000004F70656E424C5400EF
:10260C0040420F0020A1070090D0030048E80100D1
:10261C00A08601000502060206030703080309034E
:10262C0009040A040B040C040C050D050E050F051A
:10263C000F061006100710080040000800400000AC
:10264C0001000000008000080040000002000000B3
:10265C0000C000080040000003000000000001085A
:10266C00000001000400000000000208000002004D
:10267C000500000000000408000002000600000035
:04268C00F101000850
:04269000C901000874
:102694000100000010000000000000000000000025
:1026A4000000000000000000010000000000000025
:1026B40000000000000000000024F40006000000F8
:0C26C40020A10700EB000000EA0000006D
:0400000508000215D8
:00000001FF
